:020000040800F2
:10000000B01C00209901000859190008A513000828
:1000100055190008A3070008592F00080000000028
:100020000000000000000000000000004522000861
:100030005509000800000000BF1D0008A9240008A1
:10004000B3010008B3010008B3010008B3010008C0
:10005000B3010008B3010008B3010008B3010008B0
:10006000B3010008B3010008B3010008B3010008A0
:10007000B3010008B3010008B3010008B301000890
:10008000B3010008B3010008B3010008B301000880
:10009000B3010008B3010008B3010008B301000870
:1000A000B3010008B3010008B3010008B301000860
:1000B000B3010008B3010008B3010008B301000850
:1000C000B3010008B3010008B3010008B301000840
:1000D000B3010008012A0008A12A0008652B0008C6
:1000E000B3010008B3010008B301000800F002F8F2
:1000F00000F042F80AA090E8000C82448344AAF180
:100100000107DA4501D100F037F8AFF2090EBAE87D
:100110000F0013F0010F18BFFB1A43F0010318473B
:10012000D03A0000F03A0000103A24BF78C878C1F5
:10013000FAD8520724BF30C830C144BF04680C60ED
:10014000704700000023002400250026103A28BF35
:1001500078C1FBD8520728BF30C148BF0B60704739
:10016000782900F0C580732900F0DD8200207047F7
:100170001FB51FBD10B510BD00F0D9FA1146FFF72D
:10018000F7FF03F0B5FA00F0F7FA03B4FFF7F2FF58
:1001900003BC00F0FFFA0000094880470948004707
:1001A000FEE7FEE7FEE7FEE7FEE7FEE7FEE7FEE727
:1001B000FEE7FEE704480549054A064B7047000084
:1001C000D1240008ED000008B0160020B01C00206B
:1001D000B0180020B01800200FB41CB5074B06AAB9
:1001E0007B4469460090059800F06BFA0020694650
:1001F00000F07AFA1CBC5DF814FB00000505000055
:100200000FB41CB50C0007AA009001D02044401E7A
:10021000074B7B4469460190069800F052FA002C87
:1002200003D06946002000F05FFA1CBC5DF814FBA7
:10023000DD0400002DE9F0410E4604460020206256
:100240002046E168884730B3252805D0D4E901214C
:100250009047206A401CF2E7E16820460027884763
:10026000050018D0A5F14100192802D820354FF417
:1002700000673246294620462760FFF771FF40B1EC
:10028000012804D0F61D26F007060836D8E7361DEB
:10029000D6E72846DAE7206ABDE8F08170B50C465B
:1002A0000546012A05D02878800600D5EA69002392
:1002B00002E0012305E05B1C934202D2E05C0028CF
:1002C000F9D1A869E618C01AA861286A18442862FA
:1002D0002846AFF3008004E0D5E9012114F8010BB2
:1002E0009047B442F8D32846AFF3008070BD0000B9
:1002F00070B504460D4621461068AFF30080218892
:10030000090502D50F4A7A4402E00E4A7A440E32B9
:10031000002104F1240305E000F00F060009965DBA
:100320005E54491C0028F7D120780023000704D52B
:10033000702D02D009B1022311322046BDE8704071
:1003400000F061B96237000030B505460B462A4619
:1003500013F8014B12F8010B08B1A042F8D01CB100
:10036000002802D06D1CF1E7284630BD10B5431CB3
:1003700002E010F8011B71B18107FAD14FF0013290
:1003800002C88C1A8C4314EAC211F9D0C01A0A06AA
:1003900003D0C01E10BDC01A10BD0A0401D0801EBB
:1003A00010BD0902FCD0401E10BD032A40F230806F
:1003B00010F0030C00F0158011F8013BBCF1020FA6
:1003C000624498BF11F801CB00F8013B38BF11F827
:1003D000013BA2F1040298BF00F801CB38BF00F83E
:1003E000013B11F0030300F02580083AC0F00880BB
:1003F00051F8043B083A51F804CBA0E80810F5E79F
:10040000121D5CBF51F8043B40F8043BAFF3008081
:10041000D20724BF11F8013B11F801CB48BF11F8F6
:10042000012B24BF00F8013B00F801CB48BF00F8C6
:10043000012B704710B5203AC0F00B80B1E818507E
:10044000203AA0E81850B1E81850A0E81850BFF4BE
:10045000F5AF5FEA027C24BFB1E81850A0E818505D
:1004600044BF18C918C0BDE810405FEA827C24BFB1
:1004700051F8043B40F8043B08BF7047D20728BF3F
:1004800031F8023B48BF11F8012B28BF20F8023B8E
:1004900048BF00F8012B70474FF000020429C0F05C
:1004A000128010F0030C00F01B80CCF1040CBCF1A6
:1004B000020F18BF00F8012BA8BF20F8022BA1EBF8
:1004C0000C0100F00DB85FEAC17C24BF00F8012BDD
:1004D00000F8012B48BF00F8012B70474FF00002D5
:1004E00000B5134694469646203922BFA0E80C502A
:1004F000A0E80C50B1F12001BFF4F7AF090728BF05
:10050000A0E80C5048BF0CC05DF804EB890028BF80
:1005100040F8042B08BF704748BF20F8022B11F0A9
:10052000804F18BF00F8012B704710B5044610F03B
:10053000030F08BF11F0030F40F015804FF0013E8C
:10054000121FC0F20E8051F8043BA3EB0E0C2CEAF4
:10055000030C1CEACE1C08BF40F8043BF0D0A1F10C
:10056000040102F10402521E08DB11F8013B002BCA
:1005700000F8013BF7D11146FFF78EFF204610BD72
:100580004FF0013C50F8042B51F8043B9A4221D122
:10059000A2EB0C03934313EACC1317D150F8042BAE
:1005A00051F8043B9A4215D1A2EB0C03934313EA92
:1005B000CC130BD150F8042B51F8043B9A4209D1CB
:1005C000A2EB0C03934313EACC13DBD04FF00000F3
:1005D000704700BFD01A01BAB1FA81F101F01801D9
:1005E00022FA01F0CB40C1F12001DBB2C0B2C01A47
:1005F0002CFA01F3D11A914311EAC311E6D17047E5
:100600007047704770472DE9F0470D46994692466E
:10061000044600F124080168880604D5E06921F049
:100620001001216000E00120A84201DD471B00E02D
:100630000027A1697A1902EB0900081AA061207845
:10064000C00602D42046AFF30080002608E0D4E9BB
:1006500001211AF806009047206A401C761C20628F
:100660004E45F4DB2078C0060AD52046AFF3008063
:1006700006E0D4E9012130209047206A401C206226
:10068000381EA7F10107F4DC07E0D4E9012118F8CE
:1006900005009047206A401C2062281EA5F1010534
:1006A000F3DC2046AFF300802078000602D502205C
:1006B000BDE8F0870120FBE701694A1C0261087868
:1006C000704700B58FB0CDE9013100210591054992
:1006D0007944CDE9031011466846FFF7ABFD0FB032
:1006E00000BD0000E5FFFFFF0A6802F8010B0A6089
:1006F0007047D1E900239A4202D2531C0B6010705C
:10070000704710B5436913B1AFF3008001E0FFF704
:10071000C5FD012010BD127800F124010A700022ED
:100720004A700122EDE711684FF0FF32E9E77546A4
:1007300000F02CF8AE4605006946534620F007004D
:10074000854618B020B5FFF735FDBDE820404FF0D5
:1007500000064FF000074FF000084FF0000B21F0AB
:100760000701AC46ACE8C009ACE8C009ACE8C00978
:10077000ACE8C0098D46704710B50446AFF3008061
:100780002046BDE81040FFF700BD0000004870475C
:100790005016002001491820ABBEFEE726000200DB
:1007A000704700BFFEE72DE9F04107468846154631
:1007B0000421052000F0C0F80021012002F074FEA1
:1007C00080210A2001F086FD002405E0395D092022
:1007D00002F06AFE601CC4B24445F7DB032101202D
:1007E00002F062FEFF2400BF052001F0A9FC0646CE
:1007F000601EC4B21CB106F004000028F4D0222010
:1008000001F09EFC2870212001F09AFC6870BDE880
:10081000F0810000F0B5B5B006460C46002C7DDD39
:10082000002564E0705D01907019407802909DF899
:100830000400302809DB9DF80400392805DC9DF808
:1008400004003038C0B201901AE09DF8040061281D
:1008500009DB9DF80400662805DC9DF80400573884
:10086000C0B201900CE09DF80400412808DB9DF81F
:100870000400462804DC9DF804003738C0B201901B
:100880009DF80800302809DB9DF80800392805DCB0
:100890009DF808003038C0B202901AE09DF80800B8
:1008A000612809DB9DF80800662805DC9DF8080032
:1008B0005738C0B202900CE09DF80800412808DBD0
:1008C0009DF80800462804DC9DF808003738C0B2BF
:1008D00002909DF808209DF8041002EB01112846B3
:1008E00005EBD072521003AB9954A81CC5B2A01CE2
:1008F000854297DB274604EBD770421003A90B48CB
:10090000FFF753FD204604EBD0714910084AC2F8A6
:100910007417012007490870C82100E003E003A80C
:10092000FFF7DCFD002435B0F0BD00002A110020E7
:10093000880E00201600002070B505460C460026E3
:10094000284601F0FDFB064626EA0401284602F08F
:10095000ABFD70BD7047000010B5CEB04FF496717E
:1009600003A8FFF7BBFD4348007850B10C2242A119
:10097000464801F069FC012879D100203D49087002
:1009800075E04348007858B10020414908703F485D
:10099000C838D0F8741700F2A22002F0C5FA66E059
:1009A0003C48007830B100203A4908703A4802F0DB
:1009B000A1FA5CE03948007830B1394802F09AFA7F
:1009C00000203649087052E03648007838B1344883
:1009D000C83002F08FFA00203249087047E03248F0
:1009E000007830B1002030490870304802F082FAB7
:1009F0003DE02F48007828B100202D49087071B6DD
:100A000002F0D6FD2B480078002830D02A491F4834
:100A10009638A0F1320329A2CDE900014FF4967176
:100A200003A8FFF7EDFB03A918489638A0F132039D
:100A300030A2CDE9000196219630FFF7E1FB134883
:100A400002F058FA03A8FFF791FC0446214603A8D8
:100A5000FFF744FD1848FFF789FC04462146164875
:100A6000FFF73CFD0020134908702B4908704EB079
:100A700010BD0000090000202B434C4F5544505539
:100A80004241434B3A203C4F4B3E0000500F002068
:100A900016000020170000208E11002014000020F6
:100AA00082130020150000201C0000206515002086
:100AB0001B0000201A0000200C0000207B70726FC9
:100AC000647563744B65793A25732C646576696344
:100AD000654E616D653A25732C636F64653A736585
:100AE0006D6170686F72652C6D6573736167653ACF
:100AF00025737D0041542B434C4F55445055423D86
:100B00002F25732F25732F7570646174652C302C1D
:100B100025730D0A000000001900002030B50446BE
:100B200004254FF4302000F07BF80546042D17D142
:100B30000C48006940F002000A4908610846446117
:100B4000006940F0400008614FF4302000F068F880
:100B500005460448006941F6FD71084001490861F5
:100B6000284630BD0020024004200B49C96801F02E
:100B7000010109B101200EE00749C96801F0040133
:100B800009B1022007E00449C96801F0100109B168
:100B9000032000E004207047002002400348006961
:100BA00040F08000014908617047000000200240C9
:100BB00070B504460D460426F00200F031F80646F2
:100BC000042E11D10948006940F00100074908616D
:100BD0002580F00200F024F806460448006941F63A
:100BE000FE71084001490861304670BD0020024096
:100BF00001460020034A106800F0380008431060E6
:100C00007047000000200240024803494860034842
:100C1000486070472301674500200240AB89EFCD53
:100C200000B502460423FFF79FFF034603E0FFF7EA
:100C30009BFF0346521E012B01D1002AF7D102B9B6
:100C40000523184600BD000010B50446214604489F
:100C5000FFF77AFB08B1012010BD0020FCE700007F
:100C6000F404002010B50346002003E013F8014B04
:100C70000C54401C9042F9DB10BD2DE9F04FADF251
:100C8000044D074689469046464600250420CDF887
:100C90000004FFF7B9FF4FEA972B4FEA8B2BC7F3FE
:100CA000090ACAF58064A64200D8B4B24DE04FF4F8
:100CB000806269465846FFF7D5FF002508E00AEB39
:100CC00005001DF80000FF2800D003E0681C85B275
:100CD000A542F4DB00BFA54221DA5846FFF71EFF0C
:100CE000CDF800049DF80004042805D04FF0FF3033
:100CF0000DF2044DBDE8F08F002507E019F805005E
:100D000005EB0A010DF80100681C85B2A542F5DB70
:100D10004FF480626946584600F01DF804E0224610
:100D20004946384600F017F8A64200D10EE00BF510
:100D3000806B4FF0000AA1442744361BB6F5806F44
:100D400002D94FF4806400E0B4B2B0E700BFFFF70F
:100D500025FF4046CCE7F8B506460C46154604206C
:100D60000090002708E021883046FFF721FF00901F
:100D7000B81C87B2B61CA41CAF4203DA9DF8000071
:100D80000428F0D02846F8BD2DE9F04102460025A0
:100D90000026002000230024002791F803C00CF057
:100DA0000F0591F803C00CF0100CBCF1000F03D03C
:100DB00091F802C04CEA050591F800C0BCF1000FA3
:100DC00031D0146800202BE04FF0010C0CFA00F336
:100DD000B1F800C00CEA03069E4220D183004FF018
:100DE0000F0C0CFA03F7BC4305FA03FC4CEA0404AD
:100DF00091F803C0BCF1280F06D14FF0010C0CFA9A
:100E000000FCC2F814C00AE091F803C0BCF1480F1E
:100E100005D14FF0010C0CFA00FCC2F810C0401CC8
:100E20000828D1D31460B1F800C0BCF1FF0F34DD45
:100E3000546800202EE000F1080C4FF0010808FA79
:100E40000CF3B1F800C00CEA03069E4221D18300E6
:100E50004FF00F0C0CFA03F7BC4305FA03FC4CEA05
:100E6000040491F803C0BCF1280F05D100F1080C6F
:100E700008FA0CF8C2F8148091F803C0BCF1480FCE
:100E800007D100F1080C4FF0010808FA0CF8C2F87D
:100E90001080401C0828CED35460BDE8F0810000CB
:100EA000F0B50A46002300240021002500F000468A
:100EB000B6F1004F02D11D4EF16901E01B4E716881
:100EC000C0F3034583B200F44016B6F5401F08D1C5
:100ED00021F07061154E766826F07066134F7E60C3
:100EE00012E000F48016B6F5801F06D1032606FA3C
:100EF00005F4A14341F0706106E0460D360103FAA6
:100F000006F6B14341F0706122B1460D360103FA95
:100F100006F6314300F00046B6F1004F02D1034E11
:100F2000F16101E0014E7160F0BD00000000014080
:100F30000246002093680B400BB1012000E0002026
:100F400070474161704701617047000070B5B2B0F1
:100F500006460024642119A8FFF7C0FA202111A831
:100F6000FFF7BCFA202109A8FFF7B8FA2022C449EC
:100F700001A8FFF75FFA012E7ED1C248006807285A
:100F80007BD2DFE800F00427323D515C6700BE48A9
:100F9000007840B90122BDA1BDA001F055F901289A
:100FA00001D1B9490870B84800780F2802DB012048
:100FB000B4490860B8A0FFF747FE012802D1B14943
:100FC000086006E0B0480078B64909780844AE49A0
:100FD000087060E00222ADA1B3A001F035F901284C
:100FE00002D10220A749086055E00322A7A1B0A0C2
:100FF00001F02AF9012802D10320A24908604AE041
:101000000422B0A1B1A001F01FF901280BD1B2A0B8
:10101000FFF71AFE012803D103209A49086002E075
:1010200004209849086036E00522ACA1B04801F0E0
:101030000BF9012802D10520924908602BE0062215
:1010400092A1ACA001F000F9012802D106208D493F
:10105000086020E00722ADA1A548FA3001F0F4F8BD
:10106000012816D10720874908600120AC49087083
:101070000020AC49086001E00EE00BE0052406E02A
:101080000020A9490855A9490855601CC4B20C2C78
:10109000F6DB00E000BFF1E0022EFCD179480068E9
:1010A00006287DD2DFE800F00326318B96A1764832
:1010B000007840B9012275A175A001F0C5F801289A
:1010C00001D171490870704800780F2802DB0120B7
:1010D0006C49086070A0FFF7B7FD012802D169498B
:1010E000086006E0684800786E4909780844664957
:1010F0000870C2E0022265A16BA001F0A5F80128EA
:1011000002D102205F490860B7E0002443E088492B
:1011100001EB440090F8E807C0F3031285A186486C
:10112000FFF75AF884480178844A02F8241080496D
:1011300001EB440090F8E80700F00F027DA17E4823
:10114000FFF74AF87C480178A000401C7B4A115404
:10115000774901EB4400B0F8E807020B75A1764827
:10116000FFF73AF874480178A000801C734A1154C4
:101170006F4901EB4400B0F8E807C0F303226DA10A
:101180006D48FFF729F86C480178A000C01C6B4A35
:101190001154601CC4B2062CB9DB684A684900E0EF
:1011A0006AE019A8FFF718F8032238A119A801F07E
:1011B0004BF8012802D10320324908605DE0042287
:1011C00032A160A001F040F8012802D104202D498D
:1011D000086052E005225FA161A001F035F8012806
:1011E00002D105202749086047E062A16648FFF761
:1011F000ABF805468DB100240CE005F11000005D50
:1012000011A9085505F11100005D222800D103E065
:10121000601CC4B2202CF0DB00BF5CA15A48FFF771
:1012200093F805468DB100240CE005F10E00005D39
:1012300009A9085505F10F00005D222800D103E03F
:10124000601CC4B2202CF0DB00BF202209A9534847
:10125000FFF713FD202211A950482030FFF70DFDA4
:10126000202201A94E48FFF708FD9DF8240010B187
:1012700071B602F09DF900E000BF00BF32B070BD52
:101280003C3A000804000020220000204F4B0000E0
:1012900041540D0A000000002B5042524541445970
:1012A0000000000072000020415445300D0A00008B
:1012B00041542B434C4F5544444953434F4E4E0DDC
:1012C0000A0000002B4352454700000041542B43C5
:1012D0005245473F0D0A0000302C30002B434C4F45
:1012E00055444844415554483A204F4B00000000B3
:1012F000EC0E002041542B434C4F5544434F4E4E6F
:101300003D36302C302C340D0A0000002B434C4F5E
:10131000554453554241434B3A203C4F4B3E00000D
:101320000B00002090012142D8000020C4000020C2
:1013300000F0FF1F255800001E000020EC000020D8
:10134000943A000841542B48545450534554555036
:101350000D0A00002B48545450434C4F5345440051
:1013600041542B48545450414354494F4E3D300D45
:101370000A000000226465766963655365637265DF
:1013800074223A2200000000F40400202270726FE0
:10139000647563744B6579223A22000000FC0008F2
:1013A000C0FF000800BFFEE7F0B5ADF5017D0546C2
:1013B0000E464FF4967136A8FFF790F8002435E0FA
:1013C000287803909DF80C00001102909DF80C0005
:1013D00000F00F0003909DF80C00092805DC9DF833
:1013E0000C003030C0B2039004E09DF80C003730A0
:1013F000C0B203909DF80800092805DC9DF808009C
:101400003030C0B2029004E09DF808003730C0B21E
:1014100002909DF8080004AA02F814009DF80C1030
:101420006000401C11546D1C601CC4B2B442C7DB88
:1014300004A8FEF79BFF0746394604A801F028FDE3
:1014400004A91748A0F1320316A2CDE900014FF418
:10145000967136A8FEF7D4FE36A91148A0F13203E2
:101460001DA2CDE900014FF4FA7100F53570FEF7C9
:10147000C7FE36A8FEF77AFF0746394636A8FFF7BB
:101480002DF804A8FEF772FF0746394604A8FFF7B7
:1014900025F80020194908700DF5017DF0BD000008
:1014A000BA0E00207B70726F647563744B65793A75
:1014B00025732C6465766963654E616D653A2573A5
:1014C0002C636F64653A646F6F722C6D6573736122
:1014D00067653A25737D000041542B434C4F5544BA
:1014E0005055423D2F25732F25732F7570646174FD
:1014F000652C302C25730D0A000000009700002099
:1015000008B541F60100ADF8000003208DF8020097
:1015100010208DF8030069461D48FFF735FC202098
:10152000ADF8000003208DF8020010208DF80300B4
:1015300069461848FFF728FC1020ADF8000003208A
:101540008DF8020010208DF8030069461048FFF75F
:101550001BFC4FF40050ADF8000048208DF803004C
:1015600069460D48FFF710FC10200949103108604A
:1015700020200860800108604000086001210448C4
:10158000FFF7E1FC20210348FFF7DBFC08BD00006A
:1015900000080140000C01400010014010B545F268
:1015A000555000F029F8062000F01AF84FF4A0700A
:1015B00000F01CF800F00CF800F002F810BD00007C
:1015C0004CF6CC40014908607047000000300040F4
:1015D0004AF6AA2001490860704700000030004028
:1015E00001494860704700000030004001498860B0
:1015F000704700000030004001490860704700005B
:101600000030004008B501210C2000F067FC4FF4C9
:101610008070ADF8000010208DF8030003208DF8D5
:10162000020069462248FFF7AFFB4FF48071204863
:10163000FFF787FC4FF48050ADF8000010208DF8C4
:10164000030003208DF8020069461A48FFF79CFB4F
:101650004FF480511748FFF774FC4FF4C040ADF8C9
:10166000000010208DF8030003208DF80200694669
:101670001048FFF789FB4FF40040ADF8000004204C
:101680008DF8030003208DF8020069460948FFF732
:101690007BFB00F01FFB00F0ADF9012002F0EAF83F
:1016A00000F0AEF9412000F06BF80349087008BD66
:1016B00000080140000C01409C00002010B588B0DB
:1016C0004FF400511748FFF733FC30B91648007843
:1016D00016490978084414490870134800780A2804
:1016E0001EDB002404E000200DF80400601CC4B2DE
:1016F000202CF8DB202269460D48FFF7BEFA202295
:1017000069460B482030FFF7B8FA2022694609489D
:10171000FFF7B3FA00200449087071B601F048FFE2
:1017200008B010BD00100140210000207100002011
:1017300000FC0008C0FF00080E4800780E49097838
:1017400008440C4908700D4800780B490978084492
:101750000A49087007480078322802DB0020054952
:101760000870064800780A2802DB00200349087048
:1017700070470000750000207000002076000020F7
:1017800010B50446412C25D108210846FFF7D4F8AE
:101790003D21112001F088FE8621172001F084FEF2
:1017A0007F21262001F080FE1E212D2001F07CFEED
:1017B00000212C2001F078FE8D212A2001F074FEFA
:1017C0003E212B2001F070FE012002F053F800F0C2
:1017D00017F901E0012010BD0020FCE73EB5002410
:1017E00042E0454901EB440090F8E807C0F30312DA
:1017F00042A14348FEF7F0FC41480178414A02F813
:1018000024103D4901EB440090F8E80700F00F0276
:101810003AA13B48FEF7E0FC39480178A000401CA3
:10182000384A1154344901EB4400B0F8E807020B80
:1018300032A13348FEF7D0FC31480178A000801C6B
:10184000304A11542C4901EB4400B0F8E807C0F3CA
:1018500003222AA12A48FEF7BFFC29480178A000EC
:10186000C01C284A1154641C062CBADB18222549D6
:101870002548FEF79AFD25482349A0F28A6324A251
:10188000CDE900106421A0F22660FEF7B9FC1E48E5
:10189000A0F1320325A26421009000F59670FEF7B6
:1018A000AFFC1948A0F1320201461346CDE90012FF
:1018B0000290254A962100F2AB60FEF7A1FC124887
:1018C000A0F1320201461346CDE9001202901F4AF0
:1018D000C82100F59960FEF793FC0B48A0F1320295
:1018E00001461346CDE900120290194AC82100F5BD
:1018F000B260FEF785FC3EBD00F0FF1F25580000DA
:101900001E000020EC000020BA0E0020121500205E
:1019100041542B434C4F55444844415554483D2570
:10192000732C25732C25730D0A00000041542B43A2
:101930004C4F55445355423D2F25732F25732F6728
:1019400065742C300D0A0000443B00089C3B0008E5
:10195000F03A000800BFFEE77047000070B50021B4
:1019600000230F22C47804B3154C246804F4E06407
:10197000C4F5E064210AC1F10403CA40447804FAC2
:1019800003F184781440214309010E4C0678A155D7
:10199000047804F01F050124AC4005786D11AD00FA
:1019A00005F1E025C5F8004109E0047804F01F05C1
:1019B0000124AC40044D0678761145F8264070BDF0
:1019C0000CED00E000E400E080E100E002490143AA
:1019D000024A1160704700000000FA050CED00E0BB
:1019E000024A0A400243024B1A60704780FFFF1F01
:1019F00008ED00E010B503211420FEF79DFF10BD97
:101A000010B5142000F09CFB044604F0030018B944
:101A10000321142000F05EFC10BDF0B587B0054630
:101A2000002708210846FEF787FF00210D2001F05E
:101A30003BFD80210E20FEF77FFF93208DF80400F0
:101A400020208DF8050006A801AB022201A9009014
:101A50000C2000F051F8064686B9002407E001A8E2
:101A6000005D285501A8005D4740601CC4B2042CED
:101A7000F5DB01A8005DB84200D0022680210E20CF
:101A800000F028FC304607B0F0BD2DE9F04387B0E8
:101A900006460F46904699468DF804608DF805700D
:101AA000002406E018F8041001AAA01C1154601CC0
:101AB000C4B2062CF6DB002407E019F8041001AAD2
:101AC00004F108001154601CC4B2062CF5DB06A812
:101AD00001AB0C2201A900900E2000F00DF8054684
:101AE0002DB9082000F02CFB00F0080000B90225F9
:101AF000284607B0BDE8F0832DE9FE4F064688462C
:101B000091469A46DDF830B0022002900020019004
:101B100000900C2E06D00E2E09D11220019010201C
:101B2000009005E0772001903020009000E000BF99
:101B300000BF019840F08001022001F0B5FC802137
:101B40000420FEF7F9FE0021012001F0ADFC802108
:101B50000A2000F0BFFB002505E018F80510092059
:101B600001F0A2FC6D1C4D45F7D33146012001F078
:101B70009BFC0C2E03D180210D2000F0ABFB41F229
:101B8000707500BF042000F0DBFA04466D1E35B10D
:101B900004F0010018B9009820400028F2D08021FC
:101BA0000D20FEF7C9FE95B3062000F0C9FA00F03B
:101BB0001B0068BB002002900198204000F001004B
:101BC00008B1012002900C2E24D10A2000F0B8FAAE
:101BD00004460C2000F0B4FA00F007072FB1601E95
:101BE00007EBC000CBF8000002E0E000CBF80000FB
:101BF00004B90124122C00DD1224002505E009207F
:101C000000F09EFA0AF805006D1CA542F7D301E02A
:101C10000220029080210C2000F05CFB00210120BA
:101C200001F042FC0298BDE8FE8FF0B587B0054692
:101C30000E4630208DF804008DF805500DF1060297
:101C4000022101A8FEF7AFFD06A801AB042201A9FD
:101C500000900C20FFF750FF074667B906989028C0
:101C600009D1002404E001A8005D3055601CC4B215
:101C7000102CF8DB00E00227384607B0F0BD70B545
:101C800088B005460C4608210846FEF755FE072198
:101C90000D2001F009FC0321142000F01BFB8DF83E
:101CA000085007A802AB012202A900900C20FFF700
:101CB00023FF06464EB90798102806D19DF8080064
:101CC00020709DF80900607000E00226304608B0E0
:101CD00070BD000010B54FF480711B48FFF733F959
:101CE000642001F0C7FD4FF480711748FFF729F910
:101CF000642001F0BFFD4FF480711348FFF723F912
:101D0000642001F0B7FD0F21012001F0CDFB64201C
:101D100001F0B0FD3D21112001F0C6FB1E212D2058
:101D200001F0C2FB00212C2001F0BEFB8D212A20F6
:101D300001F0BAFB3E212B2001F0B6FB402115201B
:101D400001F0B2FB002010BD0008014070B588B062
:101D5000054693208DF8080070208DF809000020BA
:101D60008DF80E0000240BE0295D02AAA01C11547E
:101D70009DF80E00295D48408DF80E00601CC4B22D
:101D8000042CF1DB0DF10F02072102A8FEF70BFD79
:101D900008210846FEF7D0FD07A802AB092202A9D8
:101DA00000900C20FFF7A8FE064626B907981828D1
:101DB00001D1002600E00226304608B070BD704711
:101DC0000B480078012802D001200A490870002041
:101DD0000949086001200649087000200749C1F838
:101DE000AC010120064908600649087070470000F0
:101DF000A000002014000020B00121420000214278
:101E0000948121429F00002010B500F077F84FF434
:101E1000803000F037F900BF312000F001F90028D0
:101E2000FAD00220FEF7E4FE002000F01FF90020A7
:101E300000F05AF94FF4806000F04AF94FF4E011D5
:101E40004FF4403000F062F9012000F059F900BF72
:101E5000392000F0E5F80028FAD0022000F064F9FB
:101E600000BF00F0FBF80828FBD101211C2000F086
:101E700035F80121084600F031F80121880300F00F
:101E80001DF84FF44070FFF7A1FD042000F0F8FAB0
:101E90000121084600F002F810BD000029B1064AF1
:101EA00052690243044B5A6104E0034A5269824377
:101EB000014B5A61704700000010024029B1064AE8
:101EC000D2690243044BDA6104E0034AD2698243D7
:101ED000014BDA61704700000010024029B1064A48
:101EE00092690243044B9A6104E0034A9269824377
:101EF000014B9A6170470000001002400F480068D3
:101F000040F001000D490860084640680C4908404F
:101F10000A494860084600680A49084007490860BD
:101F20000846006820F4802008600846406820F4D5
:101F3000FE0048604FF41F008860704700100240A8
:101F40000000FFF8FFFFF6FE30B50021002200245C
:101F500000232D4D6D6805F00C0121B1042905D039
:101F6000082923D105E0294D056022E0284D0560B0
:101F70001FE0254D6D6805F47012234D6D6805F462
:101F80008034022505EB92421CB9224D5543056071
:101F90000BE01D4D6D6805F400351DB11B4D55431B
:101FA000056002E01A4D5543056002E0174D0560DB
:101FB00000BF00BF144D6D6805F0F0010909164D12
:101FC0006B5C0568DD4045600F4D6D6805F4E061B0
:101FD000090A114D6B5C4568DD4085600A4D6D68EE
:101FE00005F46051C90A0C4D6B5C4568DD40C56065
:101FF000054D6D6805F44041890B084D6B5CC56863
:10200000B5FBF3F5056130BD0010024000127A0007
:102010000024F40000093D002500002035000020C8
:1020200010B501460022002300204A11012A02D1E6
:10203000094C236806E0022A02D1074C236A01E01A
:10204000054C636A01F01F02012494401C400CB14E
:10205000012000E0002010BD00100240024840684E
:1020600000F00C0070470000001002400146002004
:10207000034A506820F0F0000843506070470000A9
:10208000001002401149096821F480310F4A1160A3
:102090001146096821F480211160B0F5803F03D01A
:1020A000B0F5802F0ED106E00849096841F480316F
:1020B000064A116007E00549096841F4A021034A76
:1020C000116000E000BF00BF704700000010024038
:1020D00001460020034A506820F4E0600843506045
:1020E000704700000010024001460020034A50687B
:1020F00020F4605040EAC100506070470010024078
:102100000149086670470000000042420246002074
:10211000044B586820F47C1042EA01031843014B39
:10212000586070470010024001460020034A506882
:1021300020F0030008435060704700000010024088
:102140002DE9F04106460025012001F093FB4FF4F4
:1021500000513B48FEF7F5FE012001F08BFB4FF4E8
:1021600080513748FEF7EDFE012001F083FB7E2011
:1021700000EA460040F0800708242AE0012001F030
:1021800079FB07F08000802804D1C1012C48FEF7BC
:10219000DAFE04E04FF480412948FEF7D2FE012028
:1021A00001F068FB4FF400512548FEF7CCFE0120FA
:1021B00001F060FB7806070E012001F05BFB4FF495
:1021C00000511F48FEF7BDFE012001F053FB601EC9
:1021D000C4B2002CD2DC08241CE04FF40051184893
:1021E000FEF7B1FE012001F045FB6806050E4FF435
:1021F00000411348FEF79CFE0543012001F03AFB25
:102200004FF400510E48FEF79CFE012001F032FB16
:10221000601EC4B2002CE0DC4FF480510848FEF789
:1022200092FE012001F026FB4FF400510448FEF716
:102230008AFE012001F01EFB2846BDE8F081000067
:10224000000C01407047000070B506460D4614466C
:102250001B48005D50B94FF448711A48FEF71CF94D
:10226000304600F047FE0120154908551648005D2C
:10227000164909780844144908550846005D142891
:1022800006DB00200855092C08D00D49085505E04B
:102290000D48005D032801DA002070BD2846FEF7D6
:1022A000D3FC012809D10220054908554FF4FA71E1
:1022B0000748FEF7F1F80120EFE70020EDE7000006
:1022C000C4000020F4040020D80000207100002089
:1022D0001408002070B505460C4600262846FFF776
:1022E0002FFF064646EA0401284601F0DDF870BDDE
:1022F00010B500F001F810BD0CB500200190009061
:102300003348006840F480303149086000BF3048ED
:10231000006800F4003000900198401C0190009883
:1023200018B90198B0F5A06FF1D12948006800F400
:10233000003010B10120009001E0002000900098D2
:10234000012843D12348006840F01000214908606B
:102350000846006820F0030008600846006840F066
:10236000020008601A4840681949486008464068F9
:1023700048600846406840F480604860084640680D
:1023800020F47C1048600846406840F4E81048603B
:102390000846006840F08070086000BF0C48006884
:1023A00000F000700028F9D00948406820F00300D0
:1023B000074948600846406840F00200486000BF96
:1023C0000348406800F00C000828F9D10CBD00005B
:1023D0000010024000200240002001E000BF401C2D
:1023E000B0F57A7FFADB0121044A11600021044A2A
:1023F000117004490978044A118070478000002058
:10240000840000200003002004380140002001E087
:1024100000BF401CB0F57A7FFADB0121044A11703D
:102420000021044A117004490978044A1180704758
:102430008D0000208E00002014080020044400407D
:10244000002001E000BF401CB0F57A7FFADB0121DB
:10245000044A11700021044A117004490978044AA1
:102460001180704795000020960000208C0D002000
:102470000448004010B5FFF791F8FFF7A1F810BD30
:10248000042808D14FF0E021096941F004014FF020
:10249000E022116107E04FF0E021096921F0040119
:1024A0004FF0E022116170470448036840685A1CED
:1024B00040F1000001490A60486070474000002078
:1024C00010B500F07BF8FFF783F800F037FC10BD83
:1024D00010B51348006840F0010011490860084633
:1024E0004068104908400E494860084600680E4997
:1024F00008400B4908600846006820F48020086006
:102500000846406820F4FE0048604FF41F008860D1
:10251000FFF7EEFE4FF000600449086010BD0000B8
:10252000001002400000FFF8FFFFF6FE08ED00E09B
:102530002DE9F0411D4D00E0641C41F288308442D9
:10254000FAD3FFF761FC1A49481EB0F1807F01D32E
:1025500001201BE0481E4FF0E022506150170F226F
:10256000002804DB13071E0E124B1E5406E013074F
:102570001F0E114B00F00F06361F9F5500BF0020A5
:102580004FF0E022906107201061002008B100BFE9
:10259000FEE7FEF7B5FFFFF76DFF00F01BF900F057
:1025A00079F900F0D1F9BDE8F081000000A24A04F9
:1025B0004019010000E400E018ED00E010B56748A4
:1025C000007828BB0120654908700021644A116029
:1025D0005160114608684968624A1060516060495C
:1025E00008684968604A106051605D480168406849
:1025F0005E4A116050605A49086849685C4A106038
:1026000051605749086849685A4A1060516010BDC6
:1026100000205949087059490870594908705949AA
:102620000870594908704F48016840680A23CA1861
:1026300040F100004A490B6849689A1A814130D339
:10264000474801684068474A1160506001204A4984
:1026500008704E480078002809DD4C480078401E7C
:10266000C0B24A49087010B9002049490860494879
:102670000078002809DD47480078401EC0B245496F
:10268000087010B90020444908604448006840B10F
:1026900042480068401E4149086010B900203E4988
:1026A0000860314802684068643240F100002C49FB
:1026B0000B6849689A1A814108D329480168406823
:1026C000294A1160506001202C4908702748016890
:1026D00040684FF47A73CA1840F1000020490B6833
:1026E00049689A1A814108D31D48016840681F4A09
:1026F000116050600120224908701D48016840683F
:102700004EF660228A1840F1000015490B684968AE
:102710009A1A814108D3124801684068144A11602E
:1027200050600120174908701248026840681C4B2D
:10273000D21840F100000A490B6849689A1A814191
:1027400008D30748016840680A4A116050600120B8
:102750000D490870FEF7F0FF00BF58E77700002032
:1027600040000020480000205000002058000020B9
:102770006000002068000020700000207100002030
:102780007200002073000020740000208E000020E2
:10279000880000209600002090000020B00000205B
:1027A00080EE3600302805DB392803DCA0F130014B
:1027B000C8B20EE0612805DB662803DCA0F15701F2
:1027C000C8B206E0412804DB462802DCA0F137014C
:1027D000C8B2704700B587B001210820FFF77EFB23
:1027E00001210846FFF77AFB01218803FFF776FBFA
:1027F00001210420FEF754FB8020ADF804000420E2
:102800008DF8070001A92148FEF7BEFA4020ADF877
:10281000040003208DF8060018208DF8070001A998
:102820001A48FEF7B1FA4FF4165003900020ADF8A5
:102830001000ADF81200ADF81400ADF818000C202F
:10284000ADF8160003A9124800F00CFA25208DF807
:10285000080001208DF809008DF80A008DF80B00A2
:1028600002A8FFF77BF8012240F22661084800F039
:10287000D3F9012240F22551054800F0CDF901219C
:10288000034800F0BDF907B000BD0000000C014096
:102890000038014000B587B001210420FFF71EFB7E
:1028A00001214804FFF70AFB0820ADF804000420CA
:1028B0008DF8070001A92248FEF766FA0420ADF85A
:1028C000040003208DF8060018208DF8070001A9E8
:1028D0001B48FEF759FA4FF4E13003900020ADF8A1
:1028E0001000ADF81200ADF81400ADF818000C207F
:1028F000ADF8160003A9134800F0B4F926208DF8AE
:10290000080001208DF8090000208DF80A00012040
:102910008DF80B0002A8FFF721F8012240F2266192
:10292000084800F079F9012240F22551054800F0ED
:1029300073F90121034800F063F907B000BD0000FE
:10294000000801400044004000B587B00121082084
:10295000FFF7C4FA01218804FFF7B0FA4FF40060D2
:10296000ADF8040004208DF8070001A92248FEF705
:102970000BFA4FF48060ADF8040001208DF80600DA
:1029800018208DF8070001A91B48FEF7FDF94FF448
:10299000164003900020ADF81000ADF81200ADF81D
:1029A0001400ADF818000C20ADF8160003A9134868
:1029B00000F058F927208DF8080001208DF8090053
:1029C00002208DF80A0001208DF80B0002A8FEF706
:1029D000C5FF012240F22661084800F01DF90122DE
:1029E00040F22551054800F017F90121034800F095
:1029F00007F907B000BD0000000C0140004800408E
:102A00001F48008800F02000B8B11D48008820F061
:102A100020001B49088003201A4908701848001D2F
:102A20000088C1B2184802680068401C164B186044
:102A3000164881540120164908701148008800F09A
:102A40004000E0B10E48008820F040000C490880AA
:102A5000104800681049096888420BD20D48016887
:102A60000068401C0B4A10600C48405C0449091D7A
:102A7000088004E00020044908600249087070479B
:102A80000038014084000020780000200C01002064
:102A900098000020800000207C000020000300201F
:102AA0002748008800F0200000B32548008820F067
:102AB000200023490880032022490870224800682A
:102AC000B0F5AF6F03D34FF4AF601F4908601C48E7
:102AD000001D0088C1B21C4802680068401C1A4BE7
:102AE00018601A4881540120194908701448008858
:102AF00000F0400010B31248008820F04000104958
:102B00000880144800781449097888420BDA114883
:102B100001780078401C0F4A10701048405C08494A
:102B2000091D08800AE000200949087001200C49AD
:102B300008700020044908600249087070470000CE
:102B4000004400408E00002088000020F404002093
:102B5000000000208D0000208C00002014080020C0
:102B6000010000201E48008800F02000B0B11C4881
:102B7000008820F020001A490880032019490870B5
:102B80001749091D0988CAB217490868411C164B24
:102B9000196016490A540120154908701048008828
:102BA00000F04000D8B10E48008820F040000C49E9
:102BB0000880104800781049097888420ADA0D49DF
:102BC0000878411C0B4A11700C49095C044A121D1B
:102BD000118004E000200449086002490870704731
:102BE000004800409600002090000020600C00206B
:102BF0009700002095000020940000208C0D0020FC
:102C000021B1828942F40052828104E082894DF62A
:102C1000FF731A4082817047F0B5034600240026F6
:102C20000025002040F66A17B94200D100BF1846BF
:102C3000C1F3421401F01F06012707FA06F5012C23
:102C400001D10C3004E0022C01D1103000E014302E
:102C50001AB107682F43076002E00768AF430760B7
:102C6000F0BD00002DE9F04786B005460E46002471
:102C7000A24600BFA1460027B08900B100BF2F4681
:102C80002C8A4CF6FF700440F08804432C82AC89F7
:102C90004EF6F3100440B088318908437189084327
:102CA0000443AC81AC8A4FF6FF400440B089044332
:102CB000AC8201A8FFF748F91F48874202D1DDF82E
:102CC00010A001E0DDF80CA0A88900F4004040B19C
:102CD0000AEBCA0000EB0A1031684900B0FBF1F8BA
:102CE00007E00AEBCA0000EB0A1031688900B0FB6C
:102CF000F1F86420B8FBF0F004012009642101FB25
:102D00001089A88900F4004040B1322000EBC900CE
:102D1000B0FBF1F000F00700044308E0322000EBC4
:102D200009106421B0FBF1F000F00F0004432C8186
:102D300006B0BDE8F0870000003801407FB54C4B7D
:102D40000FCB8DE80F004B48007868B14A480078F7
:102D5000002809DD48480078401EC0B24649087086
:102D600010B900204549086043480078012822DC5A
:102D700043480078F8B14348007841281BD14148C6
:102D80004078542817D13F4880782B2813D13D48EC
:102D9000C0784D280FD13B48007941280BD13948E4
:102DA0004079432807D14FF4FA713648FDF796FB76
:102DB00001203549087034480078012857D1002097
:102DC000314908702E49087030480668001D0468B3
:102DD000001D0568F0B28DF80300300A8DF804007C
:102DE000300C8DF80500300E8DF80600E0B28DF83D
:102DF0000700200A8DF80800200C8DF80900200E2D
:102E00008DF80A00E8B28DF80B00280A8DF80C0046
:102E1000280C8DF80D00280E8DF80E009DF803008B
:102E20009DF8041008449DF8051008449DF806100C
:102E300008449DF8071008449DF8081008449DF8C0
:102E4000091008449DF80A1008449DF80B10084426
:102E50009DF80C1008449DF80D1008449DF80E10C4
:102E60000844C0B28DF80F00684600F029F87FBD15
:102E70005C3A0008700000208400002078000020E8
:102E8000980000200C01002099000020E8F7FF1FA7
:102E900030B503460D4608480560002404E013F8E9
:102EA000010B06490855641C034800688442F6D3A8
:102EB000FFF792FA30BD00007C00002000030020E4
:102EC00070B505462846FDF751FA08490860002408
:102ED00005E015F8010B06490855601CC4B203480B
:102EE00000688442F5D3FFF777FA70BD7C000020BC
:102EF0000003002070B505462846FDF737FA08495B
:102F00000870002405E015F8010B06490855601CFF
:102F1000C4B2034800788442F5DBFFF777FA70BD4E
:102F20008C0000201408002030B503460D460849E7
:102F30000D70002405E013F8010B06490855601CCC
:102F4000C4B2034800788442F5DBFFF779FA30BD5C
:102F5000940000208C0D002000BFFEE77CB5EB48FC
:102F6000026840684FF4FA63D21A70F1000000D290
:102F70007CBDE7480078E74909780844E4490870CF
:102F800008460078142803DB0020087000F080FC5D
:102F9000E148007800285CD1E0480078002858D14A
:102FA000DF480078002854D1DE480078002850D14E
:102FB000DD48007800284CD1DC480078DC490978ED
:102FC0000844DA490870084600780F2807DBD9481A
:102FD000007820B100200870D7A0FFF78BFFDBA09E
:102FE000FDF732FE01280AD1DD48FDF7BFF905469D
:102FF0002946DB48FDF750FA0020CC490870D94833
:10300000007830B30822D8A1D9A0FFF71DF9012814
:103010001FD1DAA0FDF718FE012803D10720D849F7
:10302000086016E0D7A1CE48FDF78EF9044684B1BA
:10303000641C14F8010BD449087014F8010B487093
:1030400014F8010B887014F8010BC8700120CF49E7
:103050000870CFA0FDF7F8FD012808D10020B54980
:103060000870CFA0FFF72CFF0620C5490860B148C3
:10307000007898B9CD480078CD4909780844CB4903
:10308000087008460078052808DBCA480068C04375
:10309000C949C1F890010020C4490870FEF70EFB31
:1030A000C648006878B9C648007860B9C548007855
:1030B00048B90020C44908600120BF49C1F8AC01EB
:1030C0000020C2490870C2480078FDF73FFF9948C8
:1030D000007800287ED0FDF73FFCBE48007801282C
:1030E00079DC9F4800F0F2FABB4908700846007886
:1030F000002870D001208C490870B848A0F50C71E8
:10310000A0F26223B6A2CDE900109621A0F5CD7001
:10311000FDF776F8B14AA03AC1A1914800F09CFAB7
:10312000002877D0C04801688D48FFF7B1FEBFA1E5
:10313000AA48A038FDF724FA90B9A84A963ABDA14A
:10314000874800F089FA002809D0A4489638FDF78E
:103150000DF905462946A1489638FDF75BFBA8E026
:10316000B6A19E48A038FDF70BFAF8B901209549A1
:10317000087000208F491C3108600120B149C1F856
:10318000940192490870954A963AAAA1744800F0B1
:1031900063FA0028E3D091489638FDF7E7F8054632
:1031A00029468E489638FDF735FB82E0A6A18B486C
:1031B000A038FDF7E5F9A8B9884A963A9DA1684874
:1031C00000F04AFA002874D084489638FDF7CEF80B
:1031D000054601E098E088E0294680489638FDF7EA
:1031E00019FB66E09BA17D48A038FDF7C9F990B9AD
:1031F0007A4A963A8FA15A4800F02EFA002858D001
:103200002022764996399548FDF737FD01209449EB
:1032100008704EE061E093A17048A038FDF7B0F966
:1032200048B920226D49A0399048FDF726FD0120BC
:103230008B4908703DE08EA16848A038FDF7A0F9E1
:1032400068B901205F49087000205A491C310860A4
:1032500001207C49C1F894015C49087029E086A1ED
:103260005E48A038FDF78CF980B9002055490870F8
:1032700053480078E8B901204E491C31086000200D
:103280007049C1F894015149087012E07CA153487B
:10329000A038FDF775F918B901203249087008E027
:1032A0007AA14E48A038FDF76BF910B90120794991
:1032B00008704A48A038FDF759F80546294647489E
:1032C000A038FDF7E9F845489638FDF74FF8054670
:1032D000294642489638FDF701F9534801682048CD
:1032E000FDF7DAF800203C4908706B4800780128A7
:1032F0000ADC6A48007838B1694801686948FEF715
:1033000053F801200549087000BF31E64000002055
:103310001800002070000020160000201700002078
:1033200015000020140000200900002023000020C8
:10333000720000200B00002041542B434C4F554499
:1033400053544154453F0D0A000000002B434C4F9D
:10335000554450554241434B3A203C4F4B3E0000B0
:10336000F4040020190000202B43524547000000C0
:1033700041542B435245473F0D0A0000302C30008A
:10338000040000203A0000000C0000201A00002079
:103390002B434C4F554453544154453A30000000A0
:1033A0004F66662D6C696E652100000024000020C8
:1033B000710000209001214200002142B000002055
:1033C000A0000020A1000020948121429F00002045
:1033D0001D0000208E00002008000020EA100020C0
:1033E00041542B434C4F55445055423D2F737973F4
:1033F0002F25732F25732F727270632F7265737070
:103400006F6E73652F25732C302C7B226D65737363
:10341000616765223A226F6B21227D0D0A00000050
:10342000636F64650000000088000020646F6F72A5
:10343000000000006D65737361676500446F6F7213
:103440000000000000802142656C6563747269634E
:10345000697479006C6967687400000040FC0008BA
:103460001B0000207570646174650000E0FF0008B7
:103470006F70656E00000000636C6F736500000084
:1034800073656D6170686F726500000076657273B8
:10349000696F6E001C00002096000020970000203D
:1034A00090000020600C00202DE9F04106460D46FA
:1034B000012000F0DFF94FF400513C48FDF741FDD9
:1034C000012000F0D7F94FF480513848FDF739FD5D
:1034D000012000F0CFF97E2000EA4607082424E00E
:1034E00007F08000802804D1C1013048FDF72BFD92
:1034F00004E04FF480412D48FDF723FD012000F04A
:10350000B9F94FF400512948FDF71DFD012000F0E5
:10351000B1F97806070E4FF400512448FDF711FD6C
:10352000012000F0A7F9601EC4B2002CD8DC0824EA
:1035300027E0012000F09EF905F08000802804D1EA
:10354000C1011A48FDF7FFFC04E04FF48041174821
:10355000FDF7F7FC012000F08DF94FF400511348FE
:10356000FDF7F1FC012000F085F96806050E4FF427
:1035700000510E48FDF7E5FC012000F07BF9601ECC
:10358000C4B2002CD5DC012000F074F94FF4805156
:103590000648FDF7D8FC012000F06CF94FF400510B
:1035A0000248FDF7D0FCBDE8F0810000000C0140AE
:1035B00000BF00BF00BFBFF34F8F00BF00BF00BF01
:1035C0000948006800F4E06008490843001D064906
:1035D000086000BF00BF00BFBFF34F8F00BF00BF38
:1035E00000BF00BF00BFFDE70CED00E00000FA05E2
:1035F0002DE9F74F8846144641460098FCF7A4FE93
:1036000006464046FCF7B2FE00F0FF0B06EB0B0946
:10361000DEB116F8010C2F2817D199F800002F28D9
:1036200013D109F101050BA12846FCF78DFE824656
:10363000AAEB0500C7B23A4629462046FCF775FFBB
:103640000020E0550120BDE8FE8F0020207000BF63
:10365000F9E700002C0000002DE9F74F89461446D9
:1036600049460098FCF770FE07464846FCF77EFE88
:1036700000F0FF0B07EB0B050FB317F8010C222826
:103680001DD1287822281AD168783A2817D1A8782D
:10369000222814D1EE1C0CA13046FCF755FE8246C0
:1036A000AAEB060000F0FF08424631462046FCF730
:1036B0003CFF002004F808000120BDE8FE8F002038
:1036C000207000BFF9E700002200000010B504469A
:1036D000044A05A12046FFF78BFF08B1012010BD69
:1036E0000020FCE7EA1000207265717565737400B4
:1036F0009AB0202112A8FCF7F1FE20210AA8FCF7BD
:10370000EDFE28216846FCF7E9FE00244FF0006139
:103710000846FEF765F9FEF70BFF102212A94A488A
:10372000FDF7A0FA49A112A8FCF72AFF002866D1EC
:10373000202269464748FDF795FA20226946464807
:10374000FCF778FE2022454942482030FDF78AFAEE
:103750002022424921313F484030FDF783FA3E485C
:1037600090F8AC060A2846D100BF09E03B49213158
:10377000085DFFF717F8394921310855601CC4B2BC
:10378000322CF3D3344890F8B01690F8AF0601EB22
:10379000001033490870304890F8B21690F8B1061E
:1037A00001EB00102E4948702B4890F8B41690F8A1
:1037B000B30601EB00102A498870274890F8BA1622
:1037C00090F8B90601EB001026490870224890F8DD
:1037D000BC1690F8BB0601EB0010224948701E4849
:1037E00090F8BE1690F8BD0601EB00101D498870D8
:1037F00001201D49087001201C49087002E00220C8
:103800001A490870FDF7EAFF1CE0FEF759FEFFF7C2
:10381000A5FB0D4820300078752813D10A482130C7
:10382000007870280ED112480368406842F2107286
:103830009A1A70F1000005D220220AA9024820300D
:10384000FDF71BFAE1E70000C0FF00084469616E64
:103850007275690000FC0008880E00201215002017
:10386000AD000020AA000020A20000201D000020C2
:1038700040000020002100BF07E0002001E0421EC0
:1038800090B20028FBDD4A1C91B20229F5DB70479B
:1038900010B500245948007820B9FDF7B3FE012087
:1038A0005649087000240BE055495220FEF7E7F90D
:1038B000544908700846007800B903E0601CC4B29F
:1038C000032CF1DB00BF4F48007800287BD14E4825
:1038D0000078002877D14D48007801286DD14C48F8
:1038E000FEF79BF84749087008460078002863D126
:1038F0004748FEF72BFA464B464A14216020FEF754
:10390000C4F84049087008460078002874D10024A3
:1039100010E0414A02EB041104F11402D0B2FEF7A8
:1039200084F9384908700846007808B9FF20087003
:10393000601CC4B2042CECDB032C5DDB3648007F3A
:1039400036490978884257D13348407F334949780E
:10395000884251D13048807F3049897888424BD1A4
:103960002D480078062827D2DFE800F02603181B30
:103970001E23294800792A49097888420DD1264812
:10398000407927494978884207D1234880792449DA
:103990008978884201D1FEF713FA0DE0FEF710FA9C
:1039A0000AE0FEF70DFA07E0FEF70AFA04E00AE083
:1039B00003E0FEF705FA00BF1EE001201949087078
:1039C000FEF7FEF918E00F480078A8B10E4800781D
:1039D000012811D11449086000200B4908701348D0
:1039E0000078012805D11248007810B9FA20114951
:1039F000086001201049087010BD0000C0000020C0
:103A00009D0000209C000020A0000020A2000020BB
:103A1000BC000020A400002000160020AD00002003
:103A2000AA00002014000020B00121429F000020C5
:103A3000A1000020B0000020150000204469616E44
:103A40007275690000000000000000000000000026
:103A5000000000000000000000000000FA020C005E
:103A60000000000000000000000000003031323390
:103A700034353637383941424344454640305800A2
:103A800030313233343536373839616263646566D4
:103A90004030780041542B48545450504152413DDD
:103AA00075726C2C6F6666696369616C2E6D7174DA
:103AB000742E6170692E677A6469616E7275692E01
:103AC000636F6D2F646576476174657761792F64E4
:103AD000657669636552656769737465723F64658D
:103AE000766963654E616D653D25730D0A000000C2
:103AF00041542B434C4F55445055423D2F25732F75
:103B000025732F7570646174652C302C7B70726F17
:103B1000647563744B65793A25732C6465766963C3
:103B2000654E616D653A25732C636F64653A706FFD
:103B30007765722C6D6573736167653A30307D0D02
:103B40000A00000041542B434C4F55445055423D10
:103B50002F25732F25732F7570646174652C302C9D
:103B60007B70726F647563744B65793A25732C644E
:103B700065766963654E616D653A25732C636F6484
:103B8000653A76657273696F6E2C6D6573736167E4
:103B9000653A594631307D0D0A00000041542B43EF
:103BA0004C4F55445055423D2F25732F25732F758B
:103BB00070646174652C302C7B70726F64756374F3
:103BC0004B65793A25732C6465766963654E616D42
:103BD000653A25732C636F64653A706F7765722C54
:103BE0006D6573736167653A30317D0D0A000000C1
:103BF000103C000800000020C4000000280100085C
:103C0000D43C0008C4000020EC1B00004401000864
:103C100000000000000000000000000000000000A4
:103C20000000000000000000000000000000000094
:103C30000000000000000000000102030401020374
:103C4000040607080902040608000000000000003E
:103C50000000000000000000000000000000000064
:103C60000000000000000000000000000000000054
:103C70000000000000000000000000000000000044
:103C80000000000000000000000000000000000034
:103C90000000000000000000000000000000000024
:103CA000000000000000000000000000FF00000015
:103CB00000000000FFFFFFFFFFFF0000000000000A
:103CC00000000000000000000000000000000000F4
:043CD00000000000F0
:04000005080000ED02
:00000001FF
